{
  "contractName": "NFTCollection",
  "abi": [
    {
      "inputs": [],
      "stateMutability": "nonpayable",
      "type": "constructor"
    },
    {
      "anonymous": false,
      "inputs": [
        {
          "indexed": true,
          "internalType": "address",
          "name": "owner",
          "type": "address"
        },
        {
          "indexed": true,
          "internalType": "address",
          "name": "approved",
          "type": "address"
        },
        {
          "indexed": true,
          "internalType": "uint256",
          "name": "tokenId",
          "type": "uint256"
        }
      ],
      "name": "Approval",
      "type": "event"
    },
    {
      "anonymous": false,
      "inputs": [
        {
          "indexed": true,
          "internalType": "address",
          "name": "owner",
          "type": "address"
        },
        {
          "indexed": true,
          "internalType": "address",
          "name": "operator",
          "type": "address"
        },
        {
          "indexed": false,
          "internalType": "bool",
          "name": "approved",
          "type": "bool"
        }
      ],
      "name": "ApprovalForAll",
      "type": "event"
    },
    {
      "anonymous": false,
      "inputs": [
        {
          "indexed": true,
          "internalType": "address",
          "name": "from",
          "type": "address"
        },
        {
          "indexed": true,
          "internalType": "address",
          "name": "to",
          "type": "address"
        },
        {
          "indexed": true,
          "internalType": "uint256",
          "name": "tokenId",
          "type": "uint256"
        }
      ],
      "name": "Transfer",
      "type": "event"
    },
    {
      "inputs": [
        {
          "internalType": "address",
          "name": "to",
          "type": "address"
        },
        {
          "internalType": "uint256",
          "name": "tokenId",
          "type": "uint256"
        }
      ],
      "name": "approve",
      "outputs": [],
      "stateMutability": "nonpayable",
      "type": "function"
    },
    {
      "inputs": [
        {
          "internalType": "address",
          "name": "owner",
          "type": "address"
        }
      ],
      "name": "balanceOf",
      "outputs": [
        {
          "internalType": "uint256",
          "name": "",
          "type": "uint256"
        }
      ],
      "stateMutability": "view",
      "type": "function"
    },
    {
      "inputs": [
        {
          "internalType": "uint256",
          "name": "tokenId",
          "type": "uint256"
        }
      ],
      "name": "getApproved",
      "outputs": [
        {
          "internalType": "address",
          "name": "",
          "type": "address"
        }
      ],
      "stateMutability": "view",
      "type": "function"
    },
    {
      "inputs": [
        {
          "internalType": "address",
          "name": "owner",
          "type": "address"
        },
        {
          "internalType": "address",
          "name": "operator",
          "type": "address"
        }
      ],
      "name": "isApprovedForAll",
      "outputs": [
        {
          "internalType": "bool",
          "name": "",
          "type": "bool"
        }
      ],
      "stateMutability": "view",
      "type": "function"
    },
    {
      "inputs": [],
      "name": "name",
      "outputs": [
        {
          "internalType": "string",
          "name": "",
          "type": "string"
        }
      ],
      "stateMutability": "view",
      "type": "function"
    },
    {
      "inputs": [
        {
          "internalType": "uint256",
          "name": "tokenId",
          "type": "uint256"
        }
      ],
      "name": "ownerOf",
      "outputs": [
        {
          "internalType": "address",
          "name": "",
          "type": "address"
        }
      ],
      "stateMutability": "view",
      "type": "function"
    },
    {
      "inputs": [
        {
          "internalType": "address",
          "name": "from",
          "type": "address"
        },
        {
          "internalType": "address",
          "name": "to",
          "type": "address"
        },
        {
          "internalType": "uint256",
          "name": "tokenId",
          "type": "uint256"
        }
      ],
      "name": "safeTransferFrom",
      "outputs": [],
      "stateMutability": "nonpayable",
      "type": "function"
    },
    {
      "inputs": [
        {
          "internalType": "address",
          "name": "from",
          "type": "address"
        },
        {
          "internalType": "address",
          "name": "to",
          "type": "address"
        },
        {
          "internalType": "uint256",
          "name": "tokenId",
          "type": "uint256"
        },
        {
          "internalType": "bytes",
          "name": "data",
          "type": "bytes"
        }
      ],
      "name": "safeTransferFrom",
      "outputs": [],
      "stateMutability": "nonpayable",
      "type": "function"
    },
    {
      "inputs": [
        {
          "internalType": "address",
          "name": "operator",
          "type": "address"
        },
        {
          "internalType": "bool",
          "name": "approved",
          "type": "bool"
        }
      ],
      "name": "setApprovalForAll",
      "outputs": [],
      "stateMutability": "nonpayable",
      "type": "function"
    },
    {
      "inputs": [],
      "name": "symbol",
      "outputs": [
        {
          "internalType": "string",
          "name": "",
          "type": "string"
        }
      ],
      "stateMutability": "view",
      "type": "function"
    },
    {
      "inputs": [
        {
          "internalType": "uint256",
          "name": "index",
          "type": "uint256"
        }
      ],
      "name": "tokenByIndex",
      "outputs": [
        {
          "internalType": "uint256",
          "name": "",
          "type": "uint256"
        }
      ],
      "stateMutability": "view",
      "type": "function"
    },
    {
      "inputs": [
        {
          "internalType": "address",
          "name": "owner",
          "type": "address"
        },
        {
          "internalType": "uint256",
          "name": "index",
          "type": "uint256"
        }
      ],
      "name": "tokenOfOwnerByIndex",
      "outputs": [
        {
          "internalType": "uint256",
          "name": "",
          "type": "uint256"
        }
      ],
      "stateMutability": "view",
      "type": "function"
    },
    {
      "inputs": [
        {
          "internalType": "uint256",
          "name": "",
          "type": "uint256"
        }
      ],
      "name": "tokenURIs",
      "outputs": [
        {
          "internalType": "string",
          "name": "",
          "type": "string"
        }
      ],
      "stateMutability": "view",
      "type": "function"
    },
    {
      "inputs": [],
      "name": "totalSupply",
      "outputs": [
        {
          "internalType": "uint256",
          "name": "",
          "type": "uint256"
        }
      ],
      "stateMutability": "view",
      "type": "function"
    },
    {
      "inputs": [
        {
          "internalType": "address",
          "name": "from",
          "type": "address"
        },
        {
          "internalType": "address",
          "name": "to",
          "type": "address"
        },
        {
          "internalType": "uint256",
          "name": "tokenId",
          "type": "uint256"
        }
      ],
      "name": "transferFrom",
      "outputs": [],
      "stateMutability": "nonpayable",
      "type": "function"
    },
    {
      "inputs": [
        {
          "internalType": "bytes4",
          "name": "interfaceId",
          "type": "bytes4"
        }
      ],
      "name": "supportsInterface",
      "outputs": [
        {
          "internalType": "bool",
          "name": "",
          "type": "bool"
        }
      ],
      "stateMutability": "view",
      "type": "function"
    },
    {
      "inputs": [
        {
          "internalType": "uint256",
          "name": "tokenId",
          "type": "uint256"
        }
      ],
      "name": "tokenURI",
      "outputs": [
        {
          "internalType": "string",
          "name": "",
          "type": "string"
        }
      ],
      "stateMutability": "view",
      "type": "function"
    },
    {
      "inputs": [
        {
          "internalType": "string",
          "name": "_tokenURI",
          "type": "string"
        }
      ],
      "name": "safeMint",
      "outputs": [],
      "stateMutability": "nonpayable",
      "type": "function"
    }
  ],
  "bytecode": "0x60806040523480156200001157600080fd5b506040518060400160405280600e81526020017f53525320436f6c6c656374696f6e0000000000000000000000000000000000008152506040518060400160405280600381526020017f535253000000000000000000000000000000000000000000000000000000000081525081600090816200008f919062000324565b508060019081620000a1919062000324565b5050506200040b565b600081519050919050565b7f4e487b7100000000000000000000000000000000000000000000000000000000600052604160045260246000fd5b7f4e487b7100000000000000000000000000000000000000000000000000000000600052602260045260246000fd5b600060028204905060018216806200012c57607f821691505b602082108103620001425762000141620000e4565b5b50919050565b60008190508160005260206000209050919050565b60006020601f8301049050919050565b600082821b905092915050565b600060088302620001ac7fffffffffffffffffffffffffffffffffffffffffffffffffffffffffffffffff826200016d565b620001b886836200016d565b95508019841693508086168417925050509392505050565b6000819050919050565b6000819050919050565b600062000205620001ff620001f984620001d0565b620001da565b620001d0565b9050919050565b6000819050919050565b6200022183620001e4565b6200023962000230826200020c565b8484546200017a565b825550505050565b600090565b6200025062000241565b6200025d81848462000216565b505050565b5b8181101562000285576200027960008262000246565b60018101905062000263565b5050565b601f821115620002d4576200029e8162000148565b620002a9846200015d565b81016020851015620002b9578190505b620002d1620002c8856200015d565b83018262000262565b50505b505050565b600082821c905092915050565b6000620002f960001984600802620002d9565b1980831691505092915050565b6000620003148383620002e6565b9150826002028217905092915050565b6200032f82620000aa565b67ffffffffffffffff8111156200034b576200034a620000b5565b5b62000357825462000113565b6200036482828562000289565b600060209050601f8311600181146200039c576000841562000387578287015190505b62000393858262000306565b86555062000403565b601f198416620003ac8662000148565b60005b82811015620003d657848901518255600182019150602085019450602081019050620003af565b86831015620003f65784890151620003f2601f891682620002e6565b8355505b6001600288020188555050505b505050505050565b613103806200041b6000396000f3fe608060405234801561001057600080fd5b50600436106101165760003560e01c80636352211e116100a257806395d89b411161007157806395d89b4114610317578063a22cb46514610335578063b88d4fde14610351578063c87b56dd1461036d578063e985e9c51461039d57610116565b80636352211e1461026b578063695850fb1461029b5780636c8b703f146102b757806370a08231146102e757610116565b806318160ddd116100e957806318160ddd146101b557806323b872dd146101d35780632f745c59146101ef57806342842e0e1461021f5780634f6ccce71461023b57610116565b806301ffc9a71461011b57806306fdde031461014b578063081812fc14610169578063095ea7b314610199575b600080fd5b61013560048036038101906101309190611dbc565b6103cd565b6040516101429190611e04565b60405180910390f35b6101536103df565b6040516101609190611eaf565b60405180910390f35b610183600480360381019061017e9190611f07565b610471565b6040516101909190611f75565b60405180910390f35b6101b360048036038101906101ae9190611fbc565b6104b7565b005b6101bd6105ce565b6040516101ca919061200b565b60405180910390f35b6101ed60048036038101906101e89190612026565b6105db565b005b61020960048036038101906102049190611fbc565b61063b565b604051610216919061200b565b60405180910390f35b61023960048036038101906102349190612026565b6106e0565b005b61025560048036038101906102509190611f07565b610700565b604051610262919061200b565b60405180910390f35b61028560048036038101906102809190611f07565b610771565b6040516102929190611f75565b60405180910390f35b6102b560048036038101906102b091906121ae565b610822565b005b6102d160048036038101906102cc9190611f07565b610933565b6040516102de9190611eaf565b60405180910390f35b61030160048036038101906102fc91906121f7565b6109df565b60405161030e919061200b565b60405180910390f35b61031f610a96565b60405161032c9190611eaf565b60405180910390f35b61034f600480360381019061034a9190612250565b610b28565b005b61036b60048036038101906103669190612331565b610b3e565b005b61038760048036038101906103829190611f07565b610ba0565b6040516103949190611eaf565b60405180910390f35b6103b760048036038101906103b291906123b4565b610c8d565b6040516103c49190611e04565b60405180910390f35b60006103d882610d21565b9050919050565b6060600080546103ee90612423565b80601f016020809104026020016040519081016040528092919081815260200182805461041a90612423565b80156104675780601f1061043c57610100808354040283529160200191610467565b820191906000526020600020905b81548152906001019060200180831161044a57829003601f168201915b5050505050905090565b600061047c82610d9b565b6004600083815260200190815260200160002060009054906101000a900473ffffffffffffffffffffffffffffffffffffffff169050919050565b60006104c282610771565b90508073ffffffffffffffffffffffffffffffffffffffff168373ffffffffffffffffffffffffffffffffffffffff1603610532576040517f08c379a0000000000000000000000000000000000000000000000000000000008152600401610529906124c6565b60405180910390fd5b8073ffffffffffffffffffffffffffffffffffffffff16610551610de6565b73ffffffffffffffffffffffffffffffffffffffff161480610580575061057f8161057a610de6565b610c8d565b5b6105bf576040517f08c379a00000000000000000000000000000000000000000000000000000000081526004016105b690612558565b60405180910390fd5b6105c98383610dee565b505050565b6000600880549050905090565b6105ec6105e6610de6565b82610ea7565b61062b576040517f08c379a0000000000000000000000000000000000000000000000000000000008152600401610622906125ea565b60405180910390fd5b610636838383610f3c565b505050565b6000610646836109df565b8210610687576040517f08c379a000000000000000000000000000000000000000000000000000000000815260040161067e9061267c565b60405180910390fd5b600660008473ffffffffffffffffffffffffffffffffffffffff1673ffffffffffffffffffffffffffffffffffffffff168152602001908152602001600020600083815260200190815260200160002054905092915050565b6106fb83838360405180602001604052806000815250610b3e565b505050565b600061070a6105ce565b821061074b576040517f08c379a00000000000000000000000000000000000000000000000000000000081526004016107429061270e565b60405180910390fd5b6008828154811061075f5761075e61272e565b5b90600052602060002001549050919050565b6000806002600084815260200190815260200160002060009054906101000a900473ffffffffffffffffffffffffffffffffffffffff169050600073ffffffffffffffffffffffffffffffffffffffff168173ffffffffffffffffffffffffffffffffffffffff1603610819576040517f08c379a0000000000000000000000000000000000000000000000000000000008152600401610810906127a9565b60405180910390fd5b80915050919050565b600b816040516108329190612805565b908152602001604051809103902060009054906101000a900460ff161561088e576040517f08c379a000000000000000000000000000000000000000000000000000000000815260040161088590612868565b60405180910390fd5b600a819080600181540180825580915050600190039060005260206000200160009091909190915090816108c29190612a34565b506000600a80549050905081600c600083815260200190815260200160002090816108ed9190612a34565b506108f833826111a2565b6001600b8360405161090a9190612805565b908152602001604051809103902060006101000a81548160ff0219169083151502179055505050565b600a818154811061094357600080fd5b90600052602060002001600091509050805461095e90612423565b80601f016020809104026020016040519081016040528092919081815260200182805461098a90612423565b80156109d75780601f106109ac576101008083540402835291602001916109d7565b820191906000526020600020905b8154815290600101906020018083116109ba57829003601f168201915b505050505081565b60008073ffffffffffffffffffffffffffffffffffffffff168273ffffffffffffffffffffffffffffffffffffffff1603610a4f576040517f08c379a0000000000000000000000000000000000000000000000000000000008152600401610a4690612b78565b60405180910390fd5b600360008373ffffffffffffffffffffffffffffffffffffffff1673ffffffffffffffffffffffffffffffffffffffff168152602001908152602001600020549050919050565b606060018054610aa590612423565b80601f0160208091040260200160405190810160405280929190818152602001828054610ad190612423565b8015610b1e5780601f10610af357610100808354040283529160200191610b1e565b820191906000526020600020905b815481529060010190602001808311610b0157829003601f168201915b5050505050905090565b610b3a610b33610de6565b83836111c0565b5050565b610b4f610b49610de6565b83610ea7565b610b8e576040517f08c379a0000000000000000000000000000000000000000000000000000000008152600401610b85906125ea565b60405180910390fd5b610b9a8484848461132c565b50505050565b6060610bab82611388565b610bea576040517f08c379a0000000000000000000000000000000000000000000000000000000008152600401610be190612c0a565b60405180910390fd5b600c60008381526020019081526020016000208054610c0890612423565b80601f0160208091040260200160405190810160405280929190818152602001828054610c3490612423565b8015610c815780601f10610c5657610100808354040283529160200191610c81565b820191906000526020600020905b815481529060010190602001808311610c6457829003601f168201915b50505050509050919050565b6000600560008473ffffffffffffffffffffffffffffffffffffffff1673ffffffffffffffffffffffffffffffffffffffff16815260200190815260200160002060008373ffffffffffffffffffffffffffffffffffffffff1673ffffffffffffffffffffffffffffffffffffffff16815260200190815260200160002060009054906101000a900460ff16905092915050565b60007f780e9d63000000000000000000000000000000000000000000000000000000007bffffffffffffffffffffffffffffffffffffffffffffffffffffffff1916827bffffffffffffffffffffffffffffffffffffffffffffffffffffffff19161480610d945750610d93826113f4565b5b9050919050565b610da481611388565b610de3576040517f08c379a0000000000000000000000000000000000000000000000000000000008152600401610dda906127a9565b60405180910390fd5b50565b600033905090565b816004600083815260200190815260200160002060006101000a81548173ffffffffffffffffffffffffffffffffffffffff021916908373ffffffffffffffffffffffffffffffffffffffff160217905550808273ffffffffffffffffffffffffffffffffffffffff16610e6183610771565b73ffffffffffffffffffffffffffffffffffffffff167f8c5be1e5ebec7d5bd14f71427d1e84f3dd0314c0f7b2291e5b200ac8c7c3b92560405160405180910390a45050565b600080610eb383610771565b90508073ffffffffffffffffffffffffffffffffffffffff168473ffffffffffffffffffffffffffffffffffffffff161480610ef55750610ef48185610c8d565b5b80610f3357508373ffffffffffffffffffffffffffffffffffffffff16610f1b84610471565b73ffffffffffffffffffffffffffffffffffffffff16145b91505092915050565b8273ffffffffffffffffffffffffffffffffffffffff16610f5c82610771565b73ffffffffffffffffffffffffffffffffffffffff1614610fb2576040517f08c379a0000000000000000000000000000000000000000000000000000000008152600401610fa990612c9c565b60405180910390fd5b600073ffffffffffffffffffffffffffffffffffffffff168273ffffffffffffffffffffffffffffffffffffffff1603611021576040517f08c379a000000000000000000000000000000000000000000000000000000000815260040161101890612d2e565b60405180910390fd5b61102c8383836114d6565b611037600082610dee565b6001600360008573ffffffffffffffffffffffffffffffffffffffff1673ffffffffffffffffffffffffffffffffffffffff16815260200190815260200160002060008282546110879190612d7d565b925050819055506001600360008473ffffffffffffffffffffffffffffffffffffffff1673ffffffffffffffffffffffffffffffffffffffff16815260200190815260200160002060008282546110de9190612db1565b92505081905550816002600083815260200190815260200160002060006101000a81548173ffffffffffffffffffffffffffffffffffffffff021916908373ffffffffffffffffffffffffffffffffffffffff160217905550808273ffffffffffffffffffffffffffffffffffffffff168473ffffffffffffffffffffffffffffffffffffffff167fddf252ad1be2c89b69c2b068fc378daa952ba7f163c4a11628f55a4df523b3ef60405160405180910390a461119d8383836114e6565b505050565b6111bc8282604051806020016040528060008152506114eb565b5050565b8173ffffffffffffffffffffffffffffffffffffffff168373ffffffffffffffffffffffffffffffffffffffff160361122e576040517f08c379a000000000000000000000000000000000000000000000000000000000815260040161122590612e31565b60405180910390fd5b80600560008573ffffffffffffffffffffffffffffffffffffffff1673ffffffffffffffffffffffffffffffffffffffff16815260200190815260200160002060008473ffffffffffffffffffffffffffffffffffffffff1673ffffffffffffffffffffffffffffffffffffffff16815260200190815260200160002060006101000a81548160ff0219169083151502179055508173ffffffffffffffffffffffffffffffffffffffff168373ffffffffffffffffffffffffffffffffffffffff167f17307eab39ab6107e8899845ad3d59bd9653f200f220920489ca2b5937696c318360405161131f9190611e04565b60405180910390a3505050565b611337848484610f3c565b61134384848484611546565b611382576040517f08c379a000000000000000000000000000000000000000000000000000000000815260040161137990612ec3565b60405180910390fd5b50505050565b60008073ffffffffffffffffffffffffffffffffffffffff166002600084815260200190815260200160002060009054906101000a900473ffffffffffffffffffffffffffffffffffffffff1673ffffffffffffffffffffffffffffffffffffffff1614159050919050565b60007f80ac58cd000000000000000000000000000000000000000000000000000000007bffffffffffffffffffffffffffffffffffffffffffffffffffffffff1916827bffffffffffffffffffffffffffffffffffffffffffffffffffffffff191614806114bf57507f5b5e139f000000000000000000000000000000000000000000000000000000007bffffffffffffffffffffffffffffffffffffffffffffffffffffffff1916827bffffffffffffffffffffffffffffffffffffffffffffffffffffffff1916145b806114cf57506114ce826116cd565b5b9050919050565b6114e1838383611737565b505050565b505050565b6114f58383611849565b6115026000848484611546565b611541576040517f08c379a000000000000000000000000000000000000000000000000000000000815260040161153890612ec3565b60405180910390fd5b505050565b60006115678473ffffffffffffffffffffffffffffffffffffffff16611a22565b156116c0578373ffffffffffffffffffffffffffffffffffffffff1663150b7a02611590610de6565b8786866040518563ffffffff1660e01b81526004016115b29493929190612f38565b6020604051808303816000875af19250505080156115ee57506040513d601f19601f820116820180604052508101906115eb9190612f99565b60015b611670573d806000811461161e576040519150601f19603f3d011682016040523d82523d6000602084013e611623565b606091505b506000815103611668576040517f08c379a000000000000000000000000000000000000000000000000000000000815260040161165f90612ec3565b60405180910390fd5b805181602001fd5b63150b7a0260e01b7bffffffffffffffffffffffffffffffffffffffffffffffffffffffff1916817bffffffffffffffffffffffffffffffffffffffffffffffffffffffff1916149150506116c5565b600190505b949350505050565b60007f01ffc9a7000000000000000000000000000000000000000000000000000000007bffffffffffffffffffffffffffffffffffffffffffffffffffffffff1916827bffffffffffffffffffffffffffffffffffffffffffffffffffffffff1916149050919050565b611742838383611a45565b600073ffffffffffffffffffffffffffffffffffffffff168373ffffffffffffffffffffffffffffffffffffffff16036117845761177f81611a4a565b6117c3565b8173ffffffffffffffffffffffffffffffffffffffff168373ffffffffffffffffffffffffffffffffffffffff16146117c2576117c18382611a93565b5b5b600073ffffffffffffffffffffffffffffffffffffffff168273ffffffffffffffffffffffffffffffffffffffff16036118055761180081611c00565b611844565b8273ffffffffffffffffffffffffffffffffffffffff168273ffffffffffffffffffffffffffffffffffffffff1614611843576118428282611cd1565b5b5b505050565b600073ffffffffffffffffffffffffffffffffffffffff168273ffffffffffffffffffffffffffffffffffffffff16036118b8576040517f08c379a00000000000000000000000000000000000000000000000000000000081526004016118af90613012565b60405180910390fd5b6118c181611388565b15611901576040517f08c379a00000000000000000000000000000000000000000000000000000000081526004016118f89061307e565b60405180910390fd5b61190d600083836114d6565b6001600360008473ffffffffffffffffffffffffffffffffffffffff1673ffffffffffffffffffffffffffffffffffffffff168152602001908152602001600020600082825461195d9190612db1565b92505081905550816002600083815260200190815260200160002060006101000a81548173ffffffffffffffffffffffffffffffffffffffff021916908373ffffffffffffffffffffffffffffffffffffffff160217905550808273ffffffffffffffffffffffffffffffffffffffff16600073ffffffffffffffffffffffffffffffffffffffff167fddf252ad1be2c89b69c2b068fc378daa952ba7f163c4a11628f55a4df523b3ef60405160405180910390a4611a1e600083836114e6565b5050565b6000808273ffffffffffffffffffffffffffffffffffffffff163b119050919050565b505050565b6008805490506009600083815260200190815260200160002081905550600881908060018154018082558091505060019003906000526020600020016000909190919091505550565b60006001611aa0846109df565b611aaa9190612d7d565b9050600060076000848152602001908152602001600020549050818114611b8f576000600660008673ffffffffffffffffffffffffffffffffffffffff1673ffffffffffffffffffffffffffffffffffffffff168152602001908152602001600020600084815260200190815260200160002054905080600660008773ffffffffffffffffffffffffffffffffffffffff1673ffffffffffffffffffffffffffffffffffffffff168152602001908152602001600020600084815260200190815260200160002081905550816007600083815260200190815260200160002081905550505b6007600084815260200190815260200160002060009055600660008573ffffffffffffffffffffffffffffffffffffffff1673ffffffffffffffffffffffffffffffffffffffff16815260200190815260200160002060008381526020019081526020016000206000905550505050565b60006001600880549050611c149190612d7d565b9050600060096000848152602001908152602001600020549050600060088381548110611c4457611c4361272e565b5b906000526020600020015490508060088381548110611c6657611c6561272e565b5b906000526020600020018190555081600960008381526020019081526020016000208190555060096000858152602001908152602001600020600090556008805480611cb557611cb461309e565b5b6001900381819060005260206000200160009055905550505050565b6000611cdc836109df565b905081600660008573ffffffffffffffffffffffffffffffffffffffff1673ffffffffffffffffffffffffffffffffffffffff168152602001908152602001600020600083815260200190815260200160002081905550806007600084815260200190815260200160002081905550505050565b6000604051905090565b600080fd5b600080fd5b60007fffffffff0000000000000000000000000000000000000000000000000000000082169050919050565b611d9981611d64565b8114611da457600080fd5b50565b600081359050611db681611d90565b92915050565b600060208284031215611dd257611dd1611d5a565b5b6000611de084828501611da7565b91505092915050565b60008115159050919050565b611dfe81611de9565b82525050565b6000602082019050611e196000830184611df5565b92915050565b600081519050919050565b600082825260208201905092915050565b60005b83811015611e59578082015181840152602081019050611e3e565b60008484015250505050565b6000601f19601f8301169050919050565b6000611e8182611e1f565b611e8b8185611e2a565b9350611e9b818560208601611e3b565b611ea481611e65565b840191505092915050565b60006020820190508181036000830152611ec98184611e76565b905092915050565b6000819050919050565b611ee481611ed1565b8114611eef57600080fd5b50565b600081359050611f0181611edb565b92915050565b600060208284031215611f1d57611f1c611d5a565b5b6000611f2b84828501611ef2565b91505092915050565b600073ffffffffffffffffffffffffffffffffffffffff82169050919050565b6000611f5f82611f34565b9050919050565b611f6f81611f54565b82525050565b6000602082019050611f8a6000830184611f66565b92915050565b611f9981611f54565b8114611fa457600080fd5b50565b600081359050611fb681611f90565b92915050565b60008060408385031215611fd357611fd2611d5a565b5b6000611fe185828601611fa7565b9250506020611ff285828601611ef2565b9150509250929050565b61200581611ed1565b82525050565b60006020820190506120206000830184611ffc565b92915050565b60008060006060848603121561203f5761203e611d5a565b5b600061204d86828701611fa7565b935050602061205e86828701611fa7565b925050604061206f86828701611ef2565b9150509250925092565b600080fd5b600080fd5b7f4e487b7100000000000000000000000000000000000000000000000000000000600052604160045260246000fd5b6120bb82611e65565b810181811067ffffffffffffffff821117156120da576120d9612083565b5b80604052505050565b60006120ed611d50565b90506120f982826120b2565b919050565b600067ffffffffffffffff82111561211957612118612083565b5b61212282611e65565b9050602081019050919050565b82818337600083830152505050565b600061215161214c846120fe565b6120e3565b90508281526020810184848401111561216d5761216c61207e565b5b61217884828561212f565b509392505050565b600082601f83011261219557612194612079565b5b81356121a584826020860161213e565b91505092915050565b6000602082840312156121c4576121c3611d5a565b5b600082013567ffffffffffffffff8111156121e2576121e1611d5f565b5b6121ee84828501612180565b91505092915050565b60006020828403121561220d5761220c611d5a565b5b600061221b84828501611fa7565b91505092915050565b61222d81611de9565b811461223857600080fd5b50565b60008135905061224a81612224565b92915050565b6000806040838503121561226757612266611d5a565b5b600061227585828601611fa7565b92505060206122868582860161223b565b9150509250929050565b600067ffffffffffffffff8211156122ab576122aa612083565b5b6122b482611e65565b9050602081019050919050565b60006122d46122cf84612290565b6120e3565b9050828152602081018484840111156122f0576122ef61207e565b5b6122fb84828561212f565b509392505050565b600082601f83011261231857612317612079565b5b81356123288482602086016122c1565b91505092915050565b6000806000806080858703121561234b5761234a611d5a565b5b600061235987828801611fa7565b945050602061236a87828801611fa7565b935050604061237b87828801611ef2565b925050606085013567ffffffffffffffff81111561239c5761239b611d5f565b5b6123a887828801612303565b91505092959194509250565b600080604083850312156123cb576123ca611d5a565b5b60006123d985828601611fa7565b92505060206123ea85828601611fa7565b9150509250929050565b7f4e487b7100000000000000000000000000000000000000000000000000000000600052602260045260246000fd5b6000600282049050600182168061243b57607f821691505b60208210810361244e5761244d6123f4565b5b50919050565b7f4552433732313a20617070726f76616c20746f2063757272656e74206f776e6560008201527f7200000000000000000000000000000000000000000000000000000000000000602082015250565b60006124b0602183611e2a565b91506124bb82612454565b604082019050919050565b600060208201905081810360008301526124df816124a3565b9050919050565b7f4552433732313a20617070726f76652063616c6c6572206973206e6f7420746f60008201527f6b656e206f776e6572206e6f7220617070726f76656420666f7220616c6c0000602082015250565b6000612542603e83611e2a565b915061254d826124e6565b604082019050919050565b6000602082019050818103600083015261257181612535565b9050919050565b7f4552433732313a2063616c6c6572206973206e6f7420746f6b656e206f776e6560008201527f72206e6f7220617070726f766564000000000000000000000000000000000000602082015250565b60006125d4602e83611e2a565b91506125df82612578565b604082019050919050565b60006020820190508181036000830152612603816125c7565b9050919050565b7f455243373231456e756d657261626c653a206f776e657220696e646578206f7560008201527f74206f6620626f756e6473000000000000000000000000000000000000000000602082015250565b6000612666602b83611e2a565b91506126718261260a565b604082019050919050565b6000602082019050818103600083015261269581612659565b9050919050565b7f455243373231456e756d657261626c653a20676c6f62616c20696e646578206f60008201527f7574206f6620626f756e64730000000000000000000000000000000000000000602082015250565b60006126f8602c83611e2a565b91506127038261269c565b604082019050919050565b60006020820190508181036000830152612727816126eb565b9050919050565b7f4e487b7100000000000000000000000000000000000000000000000000000000600052603260045260246000fd5b7f4552433732313a20696e76616c696420746f6b656e2049440000000000000000600082015250565b6000612793601883611e2a565b915061279e8261275d565b602082019050919050565b600060208201905081810360008301526127c281612786565b9050919050565b600081905092915050565b60006127df82611e1f565b6127e981856127c9565b93506127f9818560208601611e3b565b80840191505092915050565b600061281182846127d4565b915081905092915050565b7f54686520746f6b656e205552492073686f756c6420626520756e697175650000600082015250565b6000612852601e83611e2a565b915061285d8261281c565b602082019050919050565b6000602082019050818103600083015261288181612845565b9050919050565b60008190508160005260206000209050919050565b60006020601f8301049050919050565b600082821b905092915050565b6000600883026128ea7fffffffffffffffffffffffffffffffffffffffffffffffffffffffffffffffff826128ad565b6128f486836128ad565b95508019841693508086168417925050509392505050565b6000819050919050565b600061293161292c61292784611ed1565b61290c565b611ed1565b9050919050565b6000819050919050565b61294b83612916565b61295f61295782612938565b8484546128ba565b825550505050565b600090565b612974612967565b61297f818484612942565b505050565b5b818110156129a35761299860008261296c565b600181019050612985565b5050565b601f8211156129e8576129b981612888565b6129c28461289d565b810160208510156129d1578190505b6129e56129dd8561289d565b830182612984565b50505b505050565b600082821c905092915050565b6000612a0b600019846008026129ed565b1980831691505092915050565b6000612a2483836129fa565b9150826002028217905092915050565b612a3d82611e1f565b67ffffffffffffffff811115612a5657612a55612083565b5b612a608254612423565b612a6b8282856129a7565b600060209050601f831160018114612a9e5760008415612a8c578287015190505b612a968582612a18565b865550612afe565b601f198416612aac86612888565b60005b82811015612ad457848901518255600182019150602085019450602081019050612aaf565b86831015612af15784890151612aed601f8916826129fa565b8355505b6001600288020188555050505b505050505050565b7f4552433732313a2061646472657373207a65726f206973206e6f74206120766160008201527f6c6964206f776e65720000000000000000000000000000000000000000000000602082015250565b6000612b62602983611e2a565b9150612b6d82612b06565b604082019050919050565b60006020820190508181036000830152612b9181612b55565b9050919050565b7f4552433732314d657461646174613a2055524920717565727920666f72206e6f60008201527f6e6578697374656e7420746f6b656e0000000000000000000000000000000000602082015250565b6000612bf4602f83611e2a565b9150612bff82612b98565b604082019050919050565b60006020820190508181036000830152612c2381612be7565b9050919050565b7f4552433732313a207472616e736665722066726f6d20696e636f72726563742060008201527f6f776e6572000000000000000000000000000000000000000000000000000000602082015250565b6000612c86602583611e2a565b9150612c9182612c2a565b604082019050919050565b60006020820190508181036000830152612cb581612c79565b9050919050565b7f4552433732313a207472616e7366657220746f20746865207a65726f2061646460008201527f7265737300000000000000000000000000000000000000000000000000000000602082015250565b6000612d18602483611e2a565b9150612d2382612cbc565b604082019050919050565b60006020820190508181036000830152612d4781612d0b565b9050919050565b7f4e487b7100000000000000000000000000000000000000000000000000000000600052601160045260246000fd5b6000612d8882611ed1565b9150612d9383611ed1565b9250828203905081811115612dab57612daa612d4e565b5b92915050565b6000612dbc82611ed1565b9150612dc783611ed1565b9250828201905080821115612ddf57612dde612d4e565b5b92915050565b7f4552433732313a20617070726f766520746f2063616c6c657200000000000000600082015250565b6000612e1b601983611e2a565b9150612e2682612de5565b602082019050919050565b60006020820190508181036000830152612e4a81612e0e565b9050919050565b7f4552433732313a207472616e7366657220746f206e6f6e20455243373231526560008201527f63656976657220696d706c656d656e7465720000000000000000000000000000602082015250565b6000612ead603283611e2a565b9150612eb882612e51565b604082019050919050565b60006020820190508181036000830152612edc81612ea0565b9050919050565b600081519050919050565b600082825260208201905092915050565b6000612f0a82612ee3565b612f148185612eee565b9350612f24818560208601611e3b565b612f2d81611e65565b840191505092915050565b6000608082019050612f4d6000830187611f66565b612f5a6020830186611f66565b612f676040830185611ffc565b8181036060830152612f798184612eff565b905095945050505050565b600081519050612f9381611d90565b92915050565b600060208284031215612faf57612fae611d5a565b5b6000612fbd84828501612f84565b91505092915050565b7f4552433732313a206d696e7420746f20746865207a65726f2061646472657373600082015250565b6000612ffc602083611e2a565b915061300782612fc6565b602082019050919050565b6000602082019050818103600083015261302b81612fef565b9050919050565b7f4552433732313a20746f6b656e20616c7265616479206d696e74656400000000600082015250565b6000613068601c83611e2a565b915061307382613032565b602082019050919050565b600060208201905081810360008301526130978161305b565b9050919050565b7f4e487b7100000000000000000000000000000000000000000000000000000000600052603160045260246000fdfea2646970667358221220c59b5585d0a311d622651f484d76bb5bebe921f49667f94ab7ddbfc2dd19797f64736f6c63430008110033",
  "immutableReferences": {},
  "source": "// SPDX-License-Identifier: MIT\r\npragma solidity ^0.8.0;\r\n\r\nimport \"@openzeppelin/contracts/token/ERC721/ERC721.sol\";\r\nimport \"@openzeppelin/contracts/token/ERC721/extensions/ERC721Enumerable.sol\";\r\n\r\ncontract NFTCollection is ERC721, ERC721Enumerable {\r\n  string[] public tokenURIs;\r\n  mapping(string => bool) _tokenURIExists;\r\n  mapping(uint => string) _tokenIdToTokenURI;\r\n\r\n  constructor() \r\n    ERC721(\"SRS Collection\", \"SRS\") \r\n  {\r\n  }\r\n\r\n  function _beforeTokenTransfer(address from, address to, uint256 tokenId) internal override(ERC721, ERC721Enumerable) {\r\n    super._beforeTokenTransfer(from, to, tokenId);\r\n  }\r\n\r\n  function supportsInterface(bytes4 interfaceId) public view override(ERC721, ERC721Enumerable) returns (bool) {\r\n    return super.supportsInterface(interfaceId);\r\n  }\r\n\r\n  function tokenURI(uint256 tokenId) public override view returns (string memory) {\r\n    require(_exists(tokenId), 'ERC721Metadata: URI query for nonexistent token');\r\n    return _tokenIdToTokenURI[tokenId];\r\n  }\r\n\r\n  function safeMint(string memory _tokenURI) public {\r\n    require(!_tokenURIExists[_tokenURI], 'The token URI should be unique');\r\n    tokenURIs.push(_tokenURI);    \r\n    uint _id = tokenURIs.length;\r\n    _tokenIdToTokenURI[_id] = _tokenURI;\r\n    _safeMint(msg.sender, _id);\r\n    _tokenURIExists[_tokenURI] = true;\r\n  }\r\n}",
  "sourcePath": "D:\\GIT\\nft-marketplace\\src\\contracts\\NFTCollection.sol",
  "compiler": {
    "name": "solc",
    "version": "0.8.17+commit.8df45f5f.Emscripten.clang"
  },
  "schemaVersion": "3.4.10",
  "updatedAt": "2022-11-07T12:48:38.312Z",
  "devdoc": {
    "kind": "dev",
    "methods": {
      "approve(address,uint256)": {
        "details": "See {IERC721-approve}."
      },
      "balanceOf(address)": {
        "details": "See {IERC721-balanceOf}."
      },
      "getApproved(uint256)": {
        "details": "See {IERC721-getApproved}."
      },
      "isApprovedForAll(address,address)": {
        "details": "See {IERC721-isApprovedForAll}."
      },
      "name()": {
        "details": "See {IERC721Metadata-name}."
      },
      "ownerOf(uint256)": {
        "details": "See {IERC721-ownerOf}."
      },
      "safeTransferFrom(address,address,uint256)": {
        "details": "See {IERC721-safeTransferFrom}."
      },
      "safeTransferFrom(address,address,uint256,bytes)": {
        "details": "See {IERC721-safeTransferFrom}."
      },
      "setApprovalForAll(address,bool)": {
        "details": "See {IERC721-setApprovalForAll}."
      },
      "symbol()": {
        "details": "See {IERC721Metadata-symbol}."
      },
      "tokenByIndex(uint256)": {
        "details": "See {IERC721Enumerable-tokenByIndex}."
      },
      "tokenOfOwnerByIndex(address,uint256)": {
        "details": "See {IERC721Enumerable-tokenOfOwnerByIndex}."
      },
      "tokenURI(uint256)": {
        "details": "See {IERC721Metadata-tokenURI}."
      },
      "totalSupply()": {
        "details": "See {IERC721Enumerable-totalSupply}."
      },
      "transferFrom(address,address,uint256)": {
        "details": "See {IERC721-transferFrom}."
      }
    },
    "version": 1
  },
  "userdoc": {
    "kind": "user",
    "methods": {},
    "version": 1
  }
}